{
  "contractName": "FlightSuretyData",
  "abi": [
    {
      "constant": true,
      "inputs": [],
      "name": "REGISTRATION_FEE_AIRLINES",
      "outputs": [
        {
          "name": "",
          "type": "uint256"
        }
      ],
      "payable": false,
      "stateMutability": "view",
      "type": "function"
    },
    {
      "constant": true,
      "inputs": [
        {
          "name": "",
          "type": "uint256"
        }
      ],
      "name": "multiCalls",
      "outputs": [
        {
          "name": "",
          "type": "address"
        }
      ],
      "payable": false,
      "stateMutability": "view",
      "type": "function"
    },
    {
      "constant": true,
      "inputs": [
        {
          "name": "",
          "type": "address"
        }
      ],
      "name": "insurancePassengers",
      "outputs": [
        {
          "name": "isInsured",
          "type": "bool"
        }
      ],
      "payable": false,
      "stateMutability": "view",
      "type": "function"
    },
    {
      "inputs": [
        {
          "name": "_airline",
          "type": "address"
        }
      ],
      "payable": false,
      "stateMutability": "nonpayable",
      "type": "constructor"
    },
    {
      "payable": true,
      "stateMutability": "payable",
      "type": "fallback"
    },
    {
      "constant": false,
      "inputs": [],
      "name": "multiCallsLength",
      "outputs": [
        {
          "name": "",
          "type": "uint256"
        }
      ],
      "payable": false,
      "stateMutability": "nonpayable",
      "type": "function"
    },
    {
      "constant": false,
      "inputs": [
        {
          "name": "_i",
          "type": "uint256"
        }
      ],
      "name": "getMultiCallsItem",
      "outputs": [
        {
          "name": "",
          "type": "address"
        }
      ],
      "payable": false,
      "stateMutability": "nonpayable",
      "type": "function"
    },
    {
      "constant": false,
      "inputs": [
        {
          "name": "_address",
          "type": "address"
        }
      ],
      "name": "putMultiCallsItem",
      "outputs": [],
      "payable": false,
      "stateMutability": "nonpayable",
      "type": "function"
    },
    {
      "constant": false,
      "inputs": [],
      "name": "clearMultiCalls",
      "outputs": [],
      "payable": false,
      "stateMutability": "nonpayable",
      "type": "function"
    },
    {
      "constant": true,
      "inputs": [],
      "name": "isOperational",
      "outputs": [
        {
          "name": "",
          "type": "bool"
        }
      ],
      "payable": false,
      "stateMutability": "view",
      "type": "function"
    },
    {
      "constant": false,
      "inputs": [
        {
          "name": "mode",
          "type": "bool"
        }
      ],
      "name": "setOperatingStatus",
      "outputs": [],
      "payable": false,
      "stateMutability": "nonpayable",
      "type": "function"
    },
    {
      "constant": true,
      "inputs": [],
      "name": "getContractBalance",
      "outputs": [
        {
          "name": "balance",
          "type": "uint256"
        }
      ],
      "payable": false,
      "stateMutability": "view",
      "type": "function"
    },
    {
      "constant": true,
      "inputs": [
        {
          "name": "_airline",
          "type": "address"
        }
      ],
      "name": "getAirlineFund",
      "outputs": [
        {
          "name": "balance",
          "type": "uint256"
        }
      ],
      "payable": false,
      "stateMutability": "view",
      "type": "function"
    },
    {
      "constant": false,
      "inputs": [
        {
          "name": "_airline",
          "type": "address"
        }
      ],
      "name": "registerAirline",
      "outputs": [],
      "payable": false,
      "stateMutability": "nonpayable",
      "type": "function"
    },
    {
      "constant": true,
      "inputs": [
        {
          "name": "_airline",
          "type": "address"
        }
      ],
      "name": "isAirlineRegistered",
      "outputs": [
        {
          "name": "success",
          "type": "bool"
        }
      ],
      "payable": false,
      "stateMutability": "view",
      "type": "function"
    },
    {
      "constant": true,
      "inputs": [
        {
          "name": "_airline",
          "type": "address"
        }
      ],
      "name": "isAirlineFunded",
      "outputs": [
        {
          "name": "success",
          "type": "bool"
        }
      ],
      "payable": false,
      "stateMutability": "view",
      "type": "function"
    },
    {
      "constant": true,
      "inputs": [],
      "name": "getAirlineNum",
      "outputs": [
        {
          "name": "num",
          "type": "uint256"
        }
      ],
      "payable": false,
      "stateMutability": "view",
      "type": "function"
    },
    {
      "constant": false,
      "inputs": [
        {
          "name": "_flight",
          "type": "string"
        },
        {
          "name": "_time",
          "type": "uint256"
        },
        {
          "name": "_passenger",
          "type": "address"
        },
        {
          "name": "_sender",
          "type": "address"
        },
        {
          "name": "_amount",
          "type": "uint256"
        }
      ],
      "name": "buy",
      "outputs": [],
      "payable": false,
      "stateMutability": "nonpayable",
      "type": "function"
    },
    {
      "constant": false,
      "inputs": [
        {
          "name": "flight",
          "type": "string"
        }
      ],
      "name": "getPassengersInsured",
      "outputs": [
        {
          "name": "passengers",
          "type": "address[]"
        }
      ],
      "payable": false,
      "stateMutability": "nonpayable",
      "type": "function"
    },
    {
      "constant": false,
      "inputs": [
        {
          "name": "flight",
          "type": "string"
        },
        {
          "name": "passenger",
          "type": "address"
        }
      ],
      "name": "getInsuredAmount",
      "outputs": [
        {
          "name": "amount",
          "type": "uint256"
        }
      ],
      "payable": false,
      "stateMutability": "nonpayable",
      "type": "function"
    },
    {
      "constant": false,
      "inputs": [
        {
          "name": "flight",
          "type": "string"
        },
        {
          "name": "passenger",
          "type": "address"
        },
        {
          "name": "amount",
          "type": "uint256"
        }
      ],
      "name": "setInsuredAmount",
      "outputs": [],
      "payable": false,
      "stateMutability": "nonpayable",
      "type": "function"
    },
    {
      "constant": false,
      "inputs": [
        {
          "name": "payee",
          "type": "address"
        }
      ],
      "name": "withdraw",
      "outputs": [],
      "payable": true,
      "stateMutability": "payable",
      "type": "function"
    },
    {
      "constant": false,
      "inputs": [
        {
          "name": "fundAmt",
          "type": "uint256"
        },
        {
          "name": "sender",
          "type": "address"
        }
      ],
      "name": "fund",
      "outputs": [],
      "payable": true,
      "stateMutability": "payable",
      "type": "function"
    },
    {
      "constant": true,
      "inputs": [
        {
          "name": "_passenger",
          "type": "address"
        },
        {
          "name": "_flight",
          "type": "string"
        }
      ],
      "name": "getFlightIndex",
      "outputs": [
        {
          "name": "index",
          "type": "uint256"
        }
      ],
      "payable": false,
      "stateMutability": "view",
      "type": "function"
    },
    {
      "constant": true,
      "inputs": [
        {
          "name": "passenger",
          "type": "address"
        }
      ],
      "name": "getPassengerCredits",
      "outputs": [
        {
          "name": "amount",
          "type": "uint256"
        }
      ],
      "payable": false,
      "stateMutability": "view",
      "type": "function"
    }
  ],
  "bytecode": "0x60806040526001600060146101000a81548160ff02191690831515021790555060006001556000604051908082528060200260200182016040528015620000555781602001602082028038833980820191505090505b50600290805190602001906200006d92919062000299565b503480156200007b57600080fd5b5060405160208062002d0083398101806040528101908080519060200190929190505050336000806101000a81548173ffffffffffffffffffffffffffffffffffffffff021916908373ffffffffffffffffffffffffffffffffffffffff160217905550620000f98162000100640100000000026401000000009004565b506200036e565b600060149054906101000a900460ff161515620001ab576040517f08c379a00000000000000000000000000000000000000000000000000000000081526004018080602001828103825260258152602001807f436f6e74726163742069732063757272656e746c79206e6f74206f706572617481526020017f696f6e616c00000000000000000000000000000000000000000000000000000081525060400191505060405180910390fd5b60408051908101604052806001151581526020016000815250600360008373ffffffffffffffffffffffffffffffffffffffff1673ffffffffffffffffffffffffffffffffffffffff16815260200190815260200160002060008201518160000160006101000a81548160ff0219169083151502179055506020820151816001015590505060048190806001815401808255809150509060018203906000526020600020016000909192909190916101000a81548173ffffffffffffffffffffffffffffffffffffffff021916908373ffffffffffffffffffffffffffffffffffffffff1602179055505050565b82805482825590600052602060002090810192821562000315579160200282015b82811115620003145782518260006101000a81548173ffffffffffffffffffffffffffffffffffffffff021916908373ffffffffffffffffffffffffffffffffffffffff16021790555091602001919060010190620002ba565b5b50905062000324919062000328565b5090565b6200036b91905b808211156200036757600081816101000a81549073ffffffffffffffffffffffffffffffffffffffff0219169055506001016200032f565b5090565b90565b612982806200037e6000396000f300608060405260043610610133576000357c0100000000000000000000000000000000000000000000000000000000900463ffffffff168063010c5c97146101505780630549409a146101ab57806306540f36146101c25780630a40389c14610227578063110466ed146102b7578063174c7c65146102e65780634512e6bc1461031157806351cff8d91461033c5780635c828bfb14610372578063609ab31d1461039d5780636f9fb98a1461043a57806394d26b1114610465578063adc232b5146104a8578063b1c6513014610517578063b5b2921f14610584578063bdfd9877146105db578063c55462f61461061e578063c68860b414610675578063c6a5d72f146106e2578063cd905dff1461079f578063ce4d57cc146107ce578063eee9239514610829578063f53b6d6514610869575b610148346001546108c490919063ffffffff16565b600181905550005b34801561015c57600080fd5b50610191600480360381019080803573ffffffffffffffffffffffffffffffffffffffff1690602001909291905050506108e0565b604051808215151515815260200191505060405180910390f35b3480156101b757600080fd5b506101c06109e2565b005b3480156101ce57600080fd5b50610225600480360381019080803590602001908201803590602001919091929391929390803573ffffffffffffffffffffffffffffffffffffffff16906020019092919080359060200190929190505050610a2b565b005b34801561023357600080fd5b50610260600480360381019080803590602001908201803590602001919091929391929390505050610c2d565b6040518080602001828103825283818151815260200191508051906020019060200280838360005b838110156102a3578082015181840152602081019050610288565b505050509050019250505060405180910390f35b3480156102c357600080fd5b506102e4600480360381019080803515159060200190929190505050610d8b565b005b3480156102f257600080fd5b506102fb610e6c565b6040518082815260200191505060405180910390f35b34801561031d57600080fd5b50610326610e79565b6040518082815260200191505060405180910390f35b610370600480360381019080803573ffffffffffffffffffffffffffffffffffffffff169060200190929190505050610f2f565b005b34801561037e57600080fd5b5061038761116d565b6040518082815260200191505060405180910390f35b3480156103a957600080fd5b50610424600480360381019080803573ffffffffffffffffffffffffffffffffffffffff169060200190929190803590602001908201803590602001908080601f0160208091040260200160405190810160405280939291908181526020018383808284378201915050505050509192919290505050611179565b6040518082815260200191505060405180910390f35b34801561044657600080fd5b5061044f6114d1565b6040518082815260200191505060405180910390f35b34801561047157600080fd5b506104a6600480360381019080803573ffffffffffffffffffffffffffffffffffffffff169060200190929190505050611584565b005b3480156104b457600080fd5b50610501600480360381019080803590602001908201803590602001919091929391929390803573ffffffffffffffffffffffffffffffffffffffff1690602001909291905050506115ed565b6040518082815260200191505060405180910390f35b34801561052357600080fd5b50610542600480360381019080803590602001909291905050506117c2565b604051808273ffffffffffffffffffffffffffffffffffffffff1673ffffffffffffffffffffffffffffffffffffffff16815260200191505060405180910390f35b34801561059057600080fd5b506105c5600480360381019080803573ffffffffffffffffffffffffffffffffffffffff169060200190929190505050611800565b6040518082815260200191505060405180910390f35b3480156105e757600080fd5b5061061c600480360381019080803573ffffffffffffffffffffffffffffffffffffffff1690602001909291905050506118f5565b005b34801561062a57600080fd5b5061065f600480360381019080803573ffffffffffffffffffffffffffffffffffffffff169060200190929190505050611a8d565b6040518082815260200191505060405180910390f35b34801561068157600080fd5b506106a060048036038101908080359060200190929190505050611b7f565b604051808273ffffffffffffffffffffffffffffffffffffffff1673ffffffffffffffffffffffffffffffffffffffff16815260200191505060405180910390f35b3480156106ee57600080fd5b5061079d600480360381019080803590602001908201803590602001908080601f016020809104026020016040519081016040528093929190818152602001838380828437820191505050505050919291929080359060200190929190803573ffffffffffffffffffffffffffffffffffffffff169060200190929190803573ffffffffffffffffffffffffffffffffffffffff16906020019092919080359060200190929190505050611bc2565b005b3480156107ab57600080fd5b506107b46122af565b604051808215151515815260200191505060405180910390f35b3480156107da57600080fd5b5061080f600480360381019080803573ffffffffffffffffffffffffffffffffffffffff1690602001909291905050506122c5565b604051808215151515815260200191505060405180910390f35b61086760048036038101908080359060200190929190803573ffffffffffffffffffffffffffffffffffffffff1690602001909291905050506122f0565b005b34801561087557600080fd5b506108aa600480360381019080803573ffffffffffffffffffffffffffffffffffffffff169060200190929190505050612454565b604051808215151515815260200191505060405180910390f35b600081830190508281101515156108d757fe5b80905092915050565b60008060149054906101000a900460ff16151561098b576040517f08c379a00000000000000000000000000000000000000000000000000000000081526004018080602001828103825260258152602001807f436f6e74726163742069732063757272656e746c79206e6f74206f706572617481526020017f696f6e616c00000000000000000000000000000000000000000000000000000081525060400191505060405180910390fd5b600360008373ffffffffffffffffffffffffffffffffffffffff1673ffffffffffffffffffffffffffffffffffffffff16815260200190815260200160002060000160009054906101000a900460ff169050919050565b6000604051908082528060200260200182016040528015610a125781602001602082028038833980820191505090505b5060029080519060200190610a2892919061256d565b50565b60008060149054906101000a900460ff161515610ad6576040517f08c379a00000000000000000000000000000000000000000000000000000000081526004018080602001828103825260258152602001807f436f6e74726163742069732063757272656e746c79206e6f74206f706572617481526020017f696f6e616c00000000000000000000000000000000000000000000000000000081525060400191505060405180910390fd5b6001610b148487878080601f016020809104026020016040519081016040528093929190818152602001838380828437820191505050505050611179565b0390506001600560008573ffffffffffffffffffffffffffffffffffffffff1673ffffffffffffffffffffffffffffffffffffffff16815260200190815260200160002060010182815481101515610b6857fe5b90600052602060002090602091828204019190066101000a81548160ff021916908315150217905550610be382600860008673ffffffffffffffffffffffffffffffffffffffff1673ffffffffffffffffffffffffffffffffffffffff168152602001908152602001600020546108c490919063ffffffff16565b600860008573ffffffffffffffffffffffffffffffffffffffff1673ffffffffffffffffffffffffffffffffffffffff168152602001908152602001600020819055505050505050565b6060600060149054906101000a900460ff161515610cd9576040517f08c379a00000000000000000000000000000000000000000000000000000000081526004018080602001828103825260258152602001807f436f6e74726163742069732063757272656e746c79206e6f74206f706572617481526020017f696f6e616c00000000000000000000000000000000000000000000000000000081525060400191505060405180910390fd5b60068383604051808383808284378201915050925050509081526020016040518091039020805480602002602001604051908101604052809291908181526020018280548015610d7e57602002820191906000526020600020905b8160009054906101000a900473ffffffffffffffffffffffffffffffffffffffff1673ffffffffffffffffffffffffffffffffffffffff1681526020019060010190808311610d34575b5050505050905092915050565b6000809054906101000a900473ffffffffffffffffffffffffffffffffffffffff1673ffffffffffffffffffffffffffffffffffffffff163373ffffffffffffffffffffffffffffffffffffffff16141515610e4f576040517f08c379a000000000000000000000000000000000000000000000000000000000815260040180806020018281038252601c8152602001807f43616c6c6572206973206e6f7420636f6e7472616374206f776e65720000000081525060200191505060405180910390fd5b80600060146101000a81548160ff02191690831515021790555050565b6000600280549050905090565b60008060149054906101000a900460ff161515610f24576040517f08c379a00000000000000000000000000000000000000000000000000000000081526004018080602001828103825260258152602001807f436f6e74726163742069732063757272656e746c79206e6f74206f706572617481526020017f696f6e616c00000000000000000000000000000000000000000000000000000081525060400191505060405180910390fd5b600480549050905090565b60008060149054906101000a900460ff161515610fda576040517f08c379a00000000000000000000000000000000000000000000000000000000081526004018080602001828103825260258152602001807f436f6e74726163742069732063757272656e746c79206e6f74206f706572617481526020017f696f6e616c00000000000000000000000000000000000000000000000000000081525060400191505060405180910390fd5b6000600860008473ffffffffffffffffffffffffffffffffffffffff1673ffffffffffffffffffffffffffffffffffffffff16815260200190815260200160002054111515611091576040517f08c379a00000000000000000000000000000000000000000000000000000000081526004018080602001828103825260138152602001807f5468657265206973206e6f207061796f75742e0000000000000000000000000081525060200191505060405180910390fd5b600860008373ffffffffffffffffffffffffffffffffffffffff1673ffffffffffffffffffffffffffffffffffffffff1681526020019081526020016000205490506000600860008473ffffffffffffffffffffffffffffffffffffffff1673ffffffffffffffffffffffffffffffffffffffff1681526020019081526020016000208190555061112d8160015461255490919063ffffffff16565b6001819055508173ffffffffffffffffffffffffffffffffffffffff166108fc829081150290604051600060405180830381858888f19350505050505050565b678ac7230489e8000081565b60006060600060056040519080825280602002602001820160405280156111b457816020015b606081526020019060019003908161119f5790505b509150600560008673ffffffffffffffffffffffffffffffffffffffff1673ffffffffffffffffffffffffffffffffffffffff168152602001908152602001600020600301805480602002602001604051908101604052809291908181526020016000905b828210156112d5578382906000526020600020018054600181600116156101000203166002900480601f0160208091040260200160405190810160405280929190818152602001828054600181600116156101000203166002900480156112c15780601f10611296576101008083540402835291602001916112c1565b820191906000526020600020905b8154815290600101906020018083116112a457829003601f168201915b505050505081526020019060010190611219565b505050509150600090505b81518110156114c457836040516020018082805190602001908083835b60208310151561132257805182526020820191506020810190506020830392506112fd565b6001836020036101000a0380198251168184511680821785525050505050509050019150506040516020818303038152906040526040518082805190602001908083835b60208310151561138b5780518252602082019150602081019050602083039250611366565b6001836020036101000a03801982511681845116808217855250505050505090500191505060405180910390206001900482828151811015156113ca57fe5b906020019060200201516040516020018082805190602001908083835b60208310151561140c57805182526020820191506020810190506020830392506113e7565b6001836020036101000a0380198251168184511680821785525050505050509050019150506040516020818303038152906040526040518082805190602001908083835b6020831015156114755780518252602082019150602081019050602083039250611450565b6001836020036101000a03801982511681845116808217855250505050505090500191505060405180910390206001900414156114b7576001810192506114c9565b80806001019150506112e0565b600092505b505092915050565b60008060149054906101000a900460ff16151561157c576040517f08c379a00000000000000000000000000000000000000000000000000000000081526004018080602001828103825260258152602001807f436f6e74726163742069732063757272656e746c79206e6f74206f706572617481526020017f696f6e616c00000000000000000000000000000000000000000000000000000081525060400191505060405180910390fd5b600154905090565b60028190806001815401808255809150509060018203906000526020600020016000909192909190916101000a81548173ffffffffffffffffffffffffffffffffffffffff021916908373ffffffffffffffffffffffffffffffffffffffff1602179055505050565b600080600060149054906101000a900460ff16151561169a576040517f08c379a00000000000000000000000000000000000000000000000000000000081526004018080602001828103825260258152602001807f436f6e74726163742069732063757272656e746c79206e6f74206f706572617481526020017f696f6e616c00000000000000000000000000000000000000000000000000000081525060400191505060405180910390fd5b6000915060016116dc8487878080601f016020809104026020016040519081016040528093929190818152602001838380828437820191505050505050611179565b03905060001515600560008573ffffffffffffffffffffffffffffffffffffffff1673ffffffffffffffffffffffffffffffffffffffff1681526020019081526020016000206001018281548110151561173257fe5b90600052602060002090602091828204019190069054906101000a900460ff16151514156117b757600560008473ffffffffffffffffffffffffffffffffffffffff1673ffffffffffffffffffffffffffffffffffffffff168152602001908152602001600020600201818154811015156117a957fe5b906000526020600020015491505b819150509392505050565b6002818154811015156117d157fe5b906000526020600020016000915054906101000a900473ffffffffffffffffffffffffffffffffffffffff1681565b60008060149054906101000a900460ff1615156118ab576040517f08c379a00000000000000000000000000000000000000000000000000000000081526004018080602001828103825260258152602001807f436f6e74726163742069732063757272656e746c79206e6f74206f706572617481526020017f696f6e616c00000000000000000000000000000000000000000000000000000081525060400191505060405180910390fd5b600360008373ffffffffffffffffffffffffffffffffffffffff1673ffffffffffffffffffffffffffffffffffffffff168152602001908152602001600020600101549050919050565b600060149054906101000a900460ff16151561199f576040517f08c379a00000000000000000000000000000000000000000000000000000000081526004018080602001828103825260258152602001807f436f6e74726163742069732063757272656e746c79206e6f74206f706572617481526020017f696f6e616c00000000000000000000000000000000000000000000000000000081525060400191505060405180910390fd5b60408051908101604052806001151581526020016000815250600360008373ffffffffffffffffffffffffffffffffffffffff1673ffffffffffffffffffffffffffffffffffffffff16815260200190815260200160002060008201518160000160006101000a81548160ff0219169083151502179055506020820151816001015590505060048190806001815401808255809150509060018203906000526020600020016000909192909190916101000a81548173ffffffffffffffffffffffffffffffffffffffff021916908373ffffffffffffffffffffffffffffffffffffffff1602179055505050565b60008060149054906101000a900460ff161515611b38576040517f08c379a00000000000000000000000000000000000000000000000000000000081526004018080602001828103825260258152602001807f436f6e74726163742069732063757272656e746c79206e6f74206f706572617481526020017f696f6e616c00000000000000000000000000000000000000000000000000000081525060400191505060405180910390fd5b600860008373ffffffffffffffffffffffffffffffffffffffff1673ffffffffffffffffffffffffffffffffffffffff168152602001908152602001600020549050919050565b6000600282815481101515611b9057fe5b9060005260206000200160009054906101000a900473ffffffffffffffffffffffffffffffffffffffff169050919050565b606080606060008060149054906101000a900460ff161515611c72576040517f08c379a00000000000000000000000000000000000000000000000000000000081526004018080602001828103825260258152602001807f436f6e74726163742069732063757272656e746c79206e6f74206f706572617481526020017f696f6e616c00000000000000000000000000000000000000000000000000000081525060400191505060405180910390fd5b6005604051908082528060200260200182016040528015611ca757816020015b6060815260200190600190039081611c925790505b5093506005604051908082528060200260200182016040528015611cda5781602001602082028038833980820191505090505b5092506005604051908082528060200260200182016040528015611d0d5781602001602082028038833980820191505090505b50915060011515600560008973ffffffffffffffffffffffffffffffffffffffff1673ffffffffffffffffffffffffffffffffffffffff16815260200190815260200160002060000160009054906101000a900460ff1615151415611f8e57611d76878a611179565b9050600081141515611e16576040517f08c379a00000000000000000000000000000000000000000000000000000000081526004018080602001828103825260268152602001807f50617373656e67657220646f6e277420696e73757265207468652073616d652081526020017f666c69676874000000000000000000000000000000000000000000000000000081525060400191505060405180910390fd5b600560008873ffffffffffffffffffffffffffffffffffffffff1673ffffffffffffffffffffffffffffffffffffffff1681526020019081526020016000206001016000908060018154018082558091505090600182039060005260206000209060209182820401919006909192909190916101000a81548160ff02191690831515021790555050600560008873ffffffffffffffffffffffffffffffffffffffff1673ffffffffffffffffffffffffffffffffffffffff168152602001908152602001600020600201859080600181540180825580915050906001820390600052602060002001600090919290919091505550600560008873ffffffffffffffffffffffffffffffffffffffff1673ffffffffffffffffffffffffffffffffffffffff168152602001908152602001600020600301899080600181540180825580915050906001820390600052602060002001600090919290919091509080519060200190611f879291906125f7565b50506120cd565b6000836000815181101515611f9f57fe5b906020019060200201901515908115158152505084826000815181101515611fc357fe5b906020019060200201818152505088846000815181101515611fe157fe5b9060200190602002018190525060806040519081016040528060011515815260200184815260200183815260200185815250600560008973ffffffffffffffffffffffffffffffffffffffff1673ffffffffffffffffffffffffffffffffffffffff16815260200190815260200160002060008201518160000160006101000a81548160ff021916908315150217905550602082015181600101908051906020019061208e929190612677565b5060408201518160020190805190602001906120ab92919061271d565b5060608201518160030190805190602001906120c892919061276a565b509050505b6120e2856001546108c490919063ffffffff16565b6001819055506006896040518082805190602001908083835b60208310151561212057805182526020820191506020810190506020830392506120fb565b6001836020036101000a03801982511681845116808217855250505050505090500191505090815260200160405180910390208790806001815401808255809150509060018203906000526020600020016000909192909190916101000a81548173ffffffffffffffffffffffffffffffffffffffff021916908373ffffffffffffffffffffffffffffffffffffffff160217905550506122358560078b6040518082805190602001908083835b6020831015156121f357805182526020820191506020810190506020830392506121ce565b6001836020036101000a0380198251168184511680821785525050505050509050019150509081526020016040518091039020546108c490919063ffffffff16565b60078a6040518082805190602001908083835b60208310151561226d5780518252602082019150602081019050602083039250612248565b6001836020036101000a038019825116818451168082178552505050505050905001915050908152602001604051809103902081905550505050505050505050565b60008060149054906101000a900460ff16905090565b60056020528060005260406000206000915090508060000160009054906101000a900460ff16905081565b600060149054906101000a900460ff16151561239a576040517f08c379a00000000000000000000000000000000000000000000000000000000081526004018080602001828103825260258152602001807f436f6e74726163742069732063757272656e746c79206e6f74206f706572617481526020017f696f6e616c00000000000000000000000000000000000000000000000000000081525060400191505060405180910390fd5b6123ef82600360008473ffffffffffffffffffffffffffffffffffffffff1673ffffffffffffffffffffffffffffffffffffffff168152602001908152602001600020600101546108c490919063ffffffff16565b600360008373ffffffffffffffffffffffffffffffffffffffff1673ffffffffffffffffffffffffffffffffffffffff1681526020019081526020016000206001018190555061244a826001546108c490919063ffffffff16565b6001819055505050565b60008060149054906101000a900460ff1615156124ff576040517f08c379a00000000000000000000000000000000000000000000000000000000081526004018080602001828103825260258152602001807f436f6e74726163742069732063757272656e746c79206e6f74206f706572617481526020017f696f6e616c00000000000000000000000000000000000000000000000000000081525060400191505060405180910390fd5b678ac7230489e80000600360008473ffffffffffffffffffffffffffffffffffffffff1673ffffffffffffffffffffffffffffffffffffffff1681526020019081526020016000206001015410159050919050565b600082821115151561256257fe5b818303905092915050565b8280548282559060005260206000209081019282156125e6579160200282015b828111156125e55782518260006101000a81548173ffffffffffffffffffffffffffffffffffffffff021916908373ffffffffffffffffffffffffffffffffffffffff1602179055509160200191906001019061258d565b5b5090506125f391906127ca565b5090565b828054600181600116156101000203166002900490600052602060002090601f016020900481019282601f1061263857805160ff1916838001178555612666565b82800160010185558215612666579182015b8281111561266557825182559160200191906001019061264a565b5b509050612673919061280d565b5090565b82805482825590600052602060002090601f0160209004810192821561270c5791602002820160005b838211156126dd57835183826101000a81548160ff02191690831515021790555092602001926001016020816000010492830192600103026126a0565b801561270a5782816101000a81549060ff02191690556001016020816000010492830192600103026126dd565b505b5090506127199190612832565b5090565b828054828255906000526020600020908101928215612759579160200282015b8281111561275857825182559160200191906001019061273d565b5b509050612766919061280d565b5090565b8280548282559060005260206000209081019282156127b9579160200282015b828111156127b85782518290805190602001906127a8929190612862565b509160200191906001019061278a565b5b5090506127c691906128e2565b5090565b61280a91905b8082111561280657600081816101000a81549073ffffffffffffffffffffffffffffffffffffffff0219169055506001016127d0565b5090565b90565b61282f91905b8082111561282b576000816000905550600101612813565b5090565b90565b61285f91905b8082111561285b57600081816101000a81549060ff021916905550600101612838565b5090565b90565b828054600181600116156101000203166002900490600052602060002090601f016020900481019282601f106128a357805160ff19168380011785556128d1565b828001600101855582156128d1579182015b828111156128d05782518255916020019190600101906128b5565b5b5090506128de919061280d565b5090565b61290b91905b8082111561290757600081816128fe919061290e565b506001016128e8565b5090565b90565b50805460018160011615610100020316600290046000825580601f106129345750612953565b601f016020900490600052602060002090810190612952919061280d565b5b505600a165627a7a723058207d2beccc5b64ac76cf28750d8aef8b566bcf53799c8bbf59760848d56f63bc7d0029",
  "source": "pragma solidity ^0.4.25;\n\nimport \"../node_modules/openzeppelin-solidity/contracts/math/SafeMath.sol\";\n\ncontract FlightSuretyData {\n    using SafeMath for uint256;\n\n    /********************************************************************************************/\n    /*                                       DATA VARIABLES                                     */\n    /********************************************************************************************/\n\n    address private contractOwner;                                      // Account used to deploy contract\n    bool private operational = true;                                    // Blocks all state changes throughout the contract if false\n    uint256 private contractBalance = 0 ether;\n\n    address[] public multiCalls = new address[](0);\n\n    // Airlines\n    struct Airline {\n        bool registered;\n        uint256 fundBalance;\n    }\n\n    mapping(address => Airline) private airlines;\n    address[] private registeredAirlines;\n    uint256 public constant REGISTRATION_FEE_AIRLINES = 10 ether;\n\n\n    struct Passenger {   //Passenger Struct\n        bool isInsured;\n        bool[] isPaid;\n        uint256[] insurancePaid;\n        string[] flights;\n    }\n\n    //Passenger mapping\n    mapping(address => Passenger) public insurancePassengers;\n\n    //Flight mapping Passenger\n    mapping(string => address[]) private flightPassengers;\n\n    //Flight mapping Amount\n    mapping(string => uint256) private flightInsuranceTotalAmount;\n\n    //Passenger address to insurance payment. Stores Insurance payouts for passengers\n    mapping(address => uint256) private insurancePayment;\n\n    /********************************************************************************************/\n    /*                                       EVENT DEFINITIONS                                  */\n    /********************************************************************************************/\n\n\n    /**\n    * @dev Constructor\n    *      The deploying account becomes contractOwner\n    */\n    constructor(address _airline) public\n    {\n        contractOwner = msg.sender;\n        initialFirstAirline(_airline);\n    }\n\n    /********************************************************************************************/\n    /*                                       FUNCTION MODIFIERS                                 */\n    /********************************************************************************************/\n\n    // Modifiers help avoid duplication of code. They are typically used to validate something\n    // before a function is allowed to be executed.\n\n    /**\n    * @dev Modifier that requires the \"operational\" boolean variable to be \"true\"\n    *      This is used on all state changing functions to pause the contract in \n    *      the event there is an issue that needs to be fixed\n    */\n    modifier requireIsOperational()\n    {\n        require(operational, \"Contract is currently not operational\");\n        _;\n        // All modifiers require an \"_\" which indicates where the function body will be added\n    }\n\n    /**\n    * @dev Modifier that requires the \"ContractOwner\" account to be the function caller\n    */\n    modifier requireContractOwner()\n    {\n        require(msg.sender == contractOwner, \"Caller is not contract owner\");\n        _;\n    }\n\n    /********************************************************************************************/\n    /*                                       UTILITY FUNCTIONS                                  */\n    /********************************************************************************************/\n\n    function multiCallsLength() public returns(uint){\n        return multiCalls.length;\n    }\n\n    function getMultiCallsItem(uint _i) public returns(address){\n        return multiCalls[_i];\n    }\n    function putMultiCallsItem(address _address) public {\n        multiCalls.push(_address);\n    }\n\n    function clearMultiCalls() public{\n        multiCalls = new address[](0);\n    }\n\n\n    /**\n    * @dev Get operating status of contract\n    *\n    * @return A bool that is the current operating status\n    */\n    function isOperational() public view returns (bool)\n    {\n        return operational;\n    }\n\n\n    /**\n    * @dev Sets contract operations on/off\n    *\n    * When operational mode is disabled, all write transactions except for this one will fail\n    */\n    function setOperatingStatus(bool mode) external requireContractOwner\n    {\n        operational = mode;\n    }\n\n    /********************************************************************************************/\n    /*                                     SMART CONTRACT FUNCTIONS                             */\n    /********************************************************************************************/\n    function getContractBalance() external view requireIsOperational returns(uint256 balance)\n    {\n        return contractBalance;\n    }\n\n    function getAirlineFund(address _airline) external view requireIsOperational returns(uint256 balance)\n    {\n        return airlines[_airline].fundBalance;\n    }\n\n    function initialFirstAirline(address _airline) internal requireIsOperational{\n        airlines[_airline] = Airline({registered : true, fundBalance : 0});\n        registeredAirlines.push(_airline);\n    }\n    /**\n     * @dev Add an airline to the registration queue\n     *      Can only be called from FlightSuretyApp contract\n     *\n     */\n    function registerAirline(address _airline) external requireIsOperational\n    {\n        airlines[_airline] = Airline({registered : true, fundBalance : 0});\n        registeredAirlines.push(_airline);\n    }\n\n    function isAirlineRegistered(address _airline) view requireIsOperational returns (bool success) {\n        return airlines[_airline].registered;\n    }\n\n    function isAirlineFunded(address _airline) view requireIsOperational returns (bool success) {\n        return airlines[_airline].fundBalance >= REGISTRATION_FEE_AIRLINES;\n    }\n\n    function getAirlineNum() view requireIsOperational returns (uint num){\n        return registeredAirlines.length;\n    }\n\n    /**\n     * @dev Buy insurance for a flight\n     *\n     */\n    function buy(string memory _flight,uint256 _time,address _passenger,address _sender,uint256 _amount) public requireIsOperational\n    {\n        string[] memory _flights = new string[](5);\n        bool[] memory paid = new bool[](5);\n        uint256[] memory insurance = new uint[](5);\n        uint index;\n\n        if(insurancePassengers[_passenger].isInsured == true){\n            index = getFlightIndex(_passenger, _flight) ;\n\n            require(index == 0, \"Passenger don't insure the same flight\");\n\n            //otherwise input another insurance\n            insurancePassengers[_passenger].isPaid.push(false);\n            insurancePassengers[_passenger].insurancePaid.push(_amount);\n            insurancePassengers[_passenger].flights.push(_flight);\n\n        }else {\n            // initial insurance\n            paid[0] = false;\n            insurance[0] = _amount;\n            _flights[0] = _flight;\n            insurancePassengers[_passenger] = Passenger({isInsured: true, isPaid: paid, insurancePaid: insurance, flights: _flights});\n        }\n\n        // insurance amount cal\n        contractBalance = contractBalance.add(_amount);\n        flightPassengers[_flight].push(_passenger);\n        flightInsuranceTotalAmount[_flight] = flightInsuranceTotalAmount[_flight].add(_amount);\n    }\n\n    function getPassengersInsured(string flight) external requireIsOperational returns(address[] passengers)\n    {\n        return flightPassengers[flight];\n    }\n\n    function getInsuredAmount(string  flight,address passenger) external requireIsOperational returns(uint amount)\n    {\n        amount = 0;\n        uint index = getFlightIndex(passenger, flight) - 1;\n        if(insurancePassengers[passenger].isPaid[index] == false)\n        {\n            amount = insurancePassengers[passenger].insurancePaid[index];\n        }\n        return amount;\n    }\n\n    function setInsuredAmount(string  flight,address passenger,uint amount) external requireIsOperational\n    {\n        uint index = getFlightIndex(passenger, flight) - 1;\n        insurancePassengers[passenger].isPaid[index] = true;\n        insurancePayment[passenger] = insurancePayment[passenger].add(amount);\n    }\n\n    function withdraw(address payee) external payable requireIsOperational\n    {\n        require(insurancePayment[payee] > 0, \"There is no payout.\");\n        uint amount  = insurancePayment[payee];\n        insurancePayment[payee] = 0;\n        contractBalance = contractBalance.sub(amount);\n        payee.send(amount);\n    }\n\n    /**\n     * @dev Initial funding for the insurance. Unless there are too many delayed flights\n     *      resulting in insurance payouts, the contract should be self-sustaining\n     *\n     */\n    function fund(uint256 fundAmt, address sender) public payable requireIsOperational\n    {\n        airlines[sender].fundBalance = airlines[sender].fundBalance.add(fundAmt);\n        contractBalance = contractBalance.add(fundAmt);\n    }\n\n    function getFlightKey(address airline,string memory flight,uint256 timestamp) pure internal returns (bytes32)\n    {\n        return keccak256(abi.encodePacked(airline, flight, timestamp));\n    }\n\n    function getFlightIndex(address _passenger, string memory _flight) public view returns(uint index)\n    {\n        string[] memory flights = new string[](5);\n        flights = insurancePassengers[_passenger].flights;\n\n        for(uint i = 0; i < flights.length; i++){\n            if(uint(keccak256(abi.encodePacked(flights[i]))) == uint(keccak256(abi.encodePacked(_flight)))) {\n                return(i + 1);\n            }\n        }\n\n        return(0);\n    }\n\n    function getPassengerCredits(address passenger)external view requireIsOperational returns(uint256 amount)\n    {\n        return insurancePayment[passenger];\n    }\n\n    /**\n    * @dev Fallback function for funding smart contract.\n    *\n    */\n    function() external payable\n    {\n        contractBalance = contractBalance.add(msg.value);\n    }\n\n\n}\n",
  "sourcePath": "/Users/antonimartin/Desktop/Project7/contracts/FlightSuretyData.sol",
  "compiler": {
    "name": "solc",
    "version": "0.4.25+commit.59dbf8f1.Emscripten.clang"
  },
  "schemaVersion": "2.0.2",
  "updatedAt": "2019-06-28T13:49:39.952Z"
}